:020000040800F2
:1000000000500020F9020008010300080503000861
:100010007503000879030008C10300080000000010
:1000200000000000000000000000000009040008BB
:100030000D0400080000000011040008FD1A00086B
:1000400025040008250400082504000825040008EC
:1000500025040008250400082504000825040008DC
:1000600025040008250400082504000825040008CC
:1000700025040008250400082504000825040008BC
:1000800025040008250400082504000825040008AC
:10009000250400082504000825040008250400089C
:1000A000250400082504000825040008250400088C
:1000B000250400082504000825040008250400087C
:1000C000250400082504000825040008250400086C
:1000D000250400082504000825040008250400085C
:1000E000250400082504000825040008250400084C
:1000F000250400082504000825040008250400083C
:10010000250400082504000825040008250400082B
:10011000250400082504000825040008250400081B
:10012000250400082504000825040008250400080B
:1001300000000000000000000000000000000000BF
:1001400000000000000000000000000000000000AF
:10015000000000000000000000000000000000009F
:10016000000000000000000000000000000000008F
:10017000000000000000000000000000000000007F
:10018000000000000000000000000000000000006F
:10019000000000000000000000000000000000005F
:1001A000000000000000000000000000000000004F
:1001B000000000000000000000000000000000003F
:1001C000000000000000000000000000000000002F
:1001D000000000000000000000000000000000001F
:1001E0005FF8E0F100B583B001F03EFA304B314AE0
:1001F0001360314A1360314B314A03E011681960D2
:10020000043304322F498B42F8D32A4B1A682E4B01
:100210009A4204D1284B1A682C4B9A4200D0FEE730
:10022000234B2B4A13602B4A13602B4B02E0002216
:100230001A600433294A9342F9D3254B1B6813B93A
:10024000244B1B6803B1FEE701F01AFA01A86946C6
:1002500001F032F9224B234DED1AAD10002404E0D9
:100260001F4B53F8243098470134A542F8DC1E4B4D
:100270001E4DED1AAD10002404E01B4B53F8243042
:1002800098470134A542F8DC0198009901F032FD4D
:100290000546174B174CE41AA41004E0013C144B1C
:1002A00053F824309847002CF8DC284601F0A0F8D9
:1002B000BABADECA0000002094000020000000202E
:1002C000BC2A0008980000207856341232547698E0
:1002D000980000206C02002098000020700200208E
:1002E000500400085004000850040008500400089E
:1002F000500400085004000808B5FFF773FF00BF62
:1003000000BEFEE71EF0040F0CBFEFF30880EFF312
:1003100009807146404A10472DE9F04383B00546F5
:100320008946124C676BA66BD4F82880236B13F0B8
:10033000020F0BD0E36A002B08DA4BF6AB6101F039
:100340001BFA18B14FF00042E2620CE0084801F0DD
:100350002DF9CDF80090284641463A46334601F043
:1003600093F900BEFEE703B0BDE8F08300ED00E0C6
:10037000C428000800BEFEE71EF0040F0CBFEFF318
:100380000880EFF309807146244A10472DE9F041B7
:1003900082B007468846084C666BA56BA46A07487E
:1003A00001F004F9CDF800803846214632462B464C
:1003B00001F06AF900BEFEE700ED00E0D428000875
:1003C0001EF0040F0CBFEFF30880EFF309807146B5
:1003D000134A10472DE9F04182B007468846084C81
:1003E000666BA56BA46A074801F0E0F8CDF80080C1
:1003F0003846214632462B4601F046F900BEFEE75C
:1004000000ED00E0E028000800BEFEE700BEFEE7C9
:1004100000BEFEE770470000190300088D030008C6
:08042000D503000800BEFEE751
:10042800BC2A00080000002098000020BC2A000810
:10043800000000000000000098000020700200206A
:080448000000000000000000AC
:1004500038B505460C464D4B98420BD003F58063EA
:10046000984207D003F5A053984203D04848E521AD
:1004700001F090F82368F3B1B3F5803F1BD0B3F5DA
:10048000003F18D0B3F5403F15D0B3F5802F12D000
:10049000B3F5A02F0FD0B3F5C02F0CD0B3F5E02FDC
:1004A00009D0B3F5002F06D0B3F5102F03D038488C
:1004B000E62101F06FF82379012B03D93448E721B5
:1004C00001F068F86379012B03D93148E82101F084
:1004D00061F8A36843B3B3F5003F25D0B3F5802F8F
:1004E00022D0B3F5C02F1FD0B3F5002F1CD0B3F529
:1004F000202F19D0B3F5402F16D0B3F5602F13D0AD
:1005000093B1B3F5003F0FD0B3F5C02F0CD0B3F5C6
:10051000002F09D0B3F5202F06D0B3F5402F03D01C
:100520001B48E92101F036F8E36833B1B3F5006FF9
:1005300003D01748EA2101F02DF8237C013BDBB200
:100540000F2B03D91248EB2101F024F86B6823F438
:10055000702323F480732268217942EA0122134335
:100560006B60AA680B4B1340E168A2680A4361798B
:1005700042EA41021343AB60EA6A22F47002237C30
:10058000013BDBB242EA0353EB6238BD0024014079
:10059000F8250008FDF7F1FF38B504460D46114B6C
:1005A00098420CD003F58063984208D003F5A0531D
:1005B000984204D00C484FF49A7100F0EBFF012DE3
:1005C00004D9094840F2351100F0E4FF25B1A368D1
:1005D00043F00103A36038BDA36823F00103A360C7
:1005E00038BD00BF00240140F825000838B5044696
:1005F0000D460F4B984208D003F5C053984204D0E3
:100600000C4840F24D1100F0C5FF012D04D90948F6
:100610004FF4A77100F0BEFF25B1A36843F48073C7
:10062000A36038BDA36823F48073A36038BD00BF06
:1006300000240140F825000810B504460A4B9842F2
:100640000CD003F58063984208D003F5A05398427C
:1006500004D006484FF4C27100F09CFFA36843F039
:100660000803A36010BD00BF00240140F825000866
:1006700010B504460B4B98420CD003F580639842AA
:1006800008D003F5A053984204D007484FF4C9712D
:1006900000F080FFA36813F0080F01D0012010BD07
:1006A000002010BD00240140F825000810B50446C4
:1006B0000A4B98420CD003F58063984208D003F5AA
:1006C000A053984204D006484FF4D57100F062FF61
:1006D000A36843F00403A36010BD00BF00240140E1
:1006E000F825000810B504460B4B98420CD003F5D2
:1006F0008063984208D003F5A053984204D007487D
:100700004FF4DC7100F046FFA36813F0040F01D032
:10071000012010BD002010BD00240140F825000874
:1007200038B504460D46114B98420CD003F5806352
:10073000984208D003F5A053984204D00C484FF4D7
:10074000E97100F027FF012D04D9094840F2D311C7
:1007500000F020FF25B1A36843F4A003A36038BDD7
:10076000A36823F4A003A36038BD00BF00240140A8
:10077000F8250008F8B504460D4616461F46374BC7
:1007800098420CD003F58063984208D003F5A0533B
:10079000984204D032484FF4167100F0FBFE112D40
:1007A00004D92F4840F2592100F0F4FE731EDBB249
:1007B0000F2B04D92A4840F25A2100F0EBFE072FF4
:1007C00004D9274840F25B2100F0E4FE092D0DD941
:1007D000E168A5F10A0303EB430307229A4021EAEB
:1007E00002029F4042EA0703E3600AE0216905EB49
:1007F000450307229A4021EA02029F4042EA07038A
:100800002361062E0CD8626B013E06EB86061F2381
:10081000B34022EA0303B54043EA05066663F8BD28
:100820000C2E0DD8226B073E06EB86061F23B34025
:1008300022EA030305FA06F643EA06052563F8BD36
:10084000E26A0D3E06EB86061F23B34022EA03034D
:10085000B54043EA0506E662F8BD00BF002401404A
:10086000F825000810B50446094B98420CD003F552
:100870008063984208D003F5A053984204D00548FD
:1008800040F2CD2100F086FEE06C80B210BD00BFCA
:1008900000240140F825000838B505460C46134BE6
:1008A00098420CD003F58063984208D003F5A0531A
:1008B000984204D00E4840F2B54100F06BFE631E32
:1008C000DBB2012B0AD9042C08D0082C06D0102C3E
:1008D00004D0074840F2B64100F05CFE2B6823428A
:1008E00001D0012038BD002038BD00BF00240140E8
:1008F000F825000838B504460D460E4B98420CD03A
:1009000003F58063984208D003F5A053984204D0C1
:10091000094840F2D54100F03DFE15F0E00F00D14E
:1009200025B9054840F2D64100F034FEED4325607C
:1009300038BD00BF00240140F825000810B504466A
:100940004F4B984225D01433984222D0143398420A
:100950001FD0143398421CD01433984219D014334A
:10096000984216D01433984213D003F5627398421C
:100970000FD0143398420CD01433984209D014335A
:10098000984206D01433984203D03E486F2100F0BD
:1009900001FE236823F001031B041B0C23600023CA
:1009A00023606360A360E360354B9C4205D1083B44
:1009B0005A6842F00F025A6010BD334B9C4205D179
:1009C0001C3B5A6842F0F0025A6010BD2F4B9C420B
:1009D00005D1303B5A6842F470625A6010BD2C4B0E
:1009E0009C4205D1443B5A6842F470425A6010BDA3
:1009F000284B9C4205D1583B5A6842F470225A60F9
:100A000010BD254B9C4205D16C3B5A6842F47002E4
:100A10005A6010BD214B9C4205D1803B5A6842F080
:100A200070625A6010BD1E4B9C4205D1083B5A684B
:100A300042F00F025A6010BD1A4B9C4205D11C3B7C
:100A40005A6842F0F0025A6010BD174B9C4205D123
:100A5000303B5A6842F470625A6010BD134B9C429E
:100A600005D1443B5A6842F470425A6010BD104BA5
:100A70009C4204D1583B5A6842F470225A6010BD1F
:100A800008000240282600081C00024030000240F6
:100A900044000240580002406C00024080000240C6
:100AA000080402401C040240300402404404024096
:100AB0005804024038B505460C46504B984225D0A4
:100AC0001433984222D0143398421FD014339842E2
:100AD0001CD01433984219D01433984216D01433D2
:100AE000984213D003F5627398420FD014339842A2
:100AF0000CD01433984209D01433984206D01433E2
:100B0000984203D03E48CF2100F044FDA368102B4B
:100B100004D01BB13A48D02100F03CFDE368013B12
:100B20004FF6FE72934203D93548D12100F032FDD1
:100B30002369402B04D01BB13148D22100F02AFD9B
:100B40006369802B04D01BB12D48D32100F022FD16
:100B5000A3694BB1B3F5807F06D0B3F5007F03D016
:100B60002748D42100F016FDE3694BB1B3F5806F3F
:100B700006D0B3F5006F03D02148D52100F00AFD5F
:100B8000236A202B04D01BB11D48D62100F002FDA2
:100B9000636AB3F5405F0AD0B3F5005F07D0B3F5E1
:100BA000805F04D01BB11648D72100F0F3FCA36A84
:100BB000B3F5804F04D01BB11148D82100F0EAFCF6
:100BC0002B6823F4FF4323F07003A168226A1143CA
:100BD0002269114362691143A2691143E269114319
:100BE000626A1143A26A0A4313432B60E3686B6095
:100BF0002368AB606368EB6038BD00BF080002404B
:100C00002826000838B504460D461F4B984226D0CA
:100C10001433984223D01433984220D0143398428E
:100C20001DD0143398421AD01433984217D014337D
:100C3000984214D003F56273984210D0143398424E
:100C40000DD0143398420AD01433984207D014338D
:100C5000984204D00D4840F2291100F09BFC012D70
:100C600004D90A484FF4957100F094FC25B123682B
:100C700043F00103236038BD236823F001031B0404
:100C80001B0C236038BD00BF080002402826000866
:100C9000F8B505460C46474B98421BD003F58063D8
:100CA000984217D003F58063984213D003F5806310
:100CB00098420FD003F5806398420BD003F5806310
:100CC000984207D003F58063984203D03A48B22196
:100CD00000F060FCE3788BB1042B0FD0282B0DD0F3
:100CE000482B0BD0142B09D0102B07D01C2B05D070
:100CF000182B03D03048B32100F04CFC23881BB9DB
:100D00002D48B42100F046FCE37803F00F0630468E
:100D100013F0100F0AD0A378013BDBB2022B03D9EA
:100D20002548BB2100F036FCA07830432378E3B19E
:100D30002E68002316E001229A402188114091423A
:100D40000FD199000F278F4026EA070600FA01F11C
:100D50000E43E178282901D16A6102E0482900D1D7
:100D60002A610133072BE6D92E602388FF2B1FD978
:100D70006E68002319E003F10802012101FA02F272
:100D80002188114091420FD199000F278F4026EA08
:100D9000070600FA01F10E43E178282900D16A61C3
:100DA000E178482900D12A610133072BE3D96E602D
:100DB000F8BD00BF000801405826000810B42A4BB7
:100DC0005B6803F00C03042B05D0082B06D013BB83
:100DD000264B036021E0254B03601EE0224B5A683E
:100DE0005B68C2F38342023213F4803F04D1204B8C
:100DF00003FB02F2026010E01B4B5B6813F4003F40
:100E000004D01B4B03FB02F2026006E0174B03FB0E
:100E100002F2026001E0154B0360134B5A68C2F303
:100E2000031214498A5CD2B2046824FA02F24260C6
:100E30005C68C4F302240C5DE4B222FA04F484601A
:100E40005C68C4F3C224095DC9B2CA40C2605B6871
:100E5000C3F381330849CB5CDBB2B2FBF3F202612E
:100E60005DF8044B704700BF0010024000127A008A
:100E700000093D00080000200400002038B50446A9
:100E80000D4620F4AA6323F0070303B920B90C48E8
:100E900040F22B4100F07EFB012D04D9084840F2BE
:100EA0002C4100F077FB25B1064B5A6914435C6175
:100EB00038BD044B5A6922EA04045C6138BD00BFA6
:100EC0008C2600080010024038B504460D460E4B33
:100ED000034003B920B90D4840F24A4100F05AFBE3
:100EE000012D04D9094840F24B4100F053FB25B1D4
:100EF000074B9A6914439C6138BD054B9A6922EAF5
:100F000004049C6138BD00BF0200C0FF8C260008AD
:100F10000010024030B587B004460D46644B98423D
:100F200013D0A3F5744398420FD003F58063984221
:100F30000BD003F58063984207D003F58063984295
:100F400003D05C48B82100F025FB2B68013B5A4ACE
:100F5000934203D95748B92100F01CFBAB8833B149
:100F6000B3F5805F03D05348BA2100F013FBEB8840
:100F700063B1B3F5805F09D0B3F5005F06D0B3F578
:100F8000405F03D04B48BB2100F004FB2B894BB1E1
:100F9000B3F5806F06D0B3F5C06F03D04548BC21D0
:100FA00000F0F8FA6B8923F00C0292B202B91BB977
:100FB0004048BD2100F0EEFAAB8963B1B3F5807F04
:100FC00009D0B3F5007F06D0B3F5407F03D0394890
:100FD000BE2100F0DFFAAB8973B1354B9C420BD0D8
:100FE000A3F574439C4207D003F580639C4203D071
:100FF0003048C22100F0CEFA238A23F440531B0468
:101000001B0CEA8813432382A28992B222F4B052C5
:1010100022F00C02A8882B89698903430B431343F0
:10102000A381A38A23F440731B041B0CAA891343D6
:10103000A38201A8FFF7C2FE1D4B9C4201D1049A76
:1010400000E0039AA3891BB2002B08DA02EB8202AC
:1010500002EB82022B685B00B2FBF3F207E002EBCB
:10106000820202EB820229688900B2FBF1F2134B83
:10107000A3FB02135B091801642103FB1123A1895F
:1010800009B2002908DADB0032330C4DA5FB03233B
:10109000C3F34213034307E01B013233074DA5FBA3
:1010A0000313C3F3431303439BB2238107B030BD43
:1010B00000380140BC2600081FAA44001F85EB51E0
:1010C00038B504460D46164B984214D0A3F5744328
:1010D000984210D003F5806398420CD003F58063EA
:1010E000984208D003F58063984204D00D484FF42D
:1010F000B17100F04FFA012D04D90A4840F2631192
:1011000000F048FA2DB1A3899BB243F40053A381A8
:1011100038BDA38923F400531B041B0CA38138BDE5
:1011200000380140BC26000870B505460C4616463E
:10113000364B984214D0A3F57443984210D003F56F
:10114000806398420CD003F58063984208D003F581
:101150008063984204D02E4840F2891100F01AFAB8
:10116000282C1ED040F227739C421AD040F22663EE
:101170009C4216D040F225539C4212D040F22443A8
:101180009C420ED040F646039C420AD040F66A13B9
:101190009C4206D0602C04D01D484FF4C57100F06D
:1011A000F9F9012E04D91A4840F28B1100F0F2F936
:1011B00040F66A139C420FD1144B9D420CD0A3F50C
:1011C00074439D4208D003F580639D4204D01048CB
:1011D00040F28F1100F0DEF9C4F3421304F01F0453
:1011E000012202FA04F4934201D10C3504E0022BEF
:1011F00001D1103500E014351EB12B681C432C6062
:1012000070BD2B6823EA04042C6070BD00380140D7
:10121000BC26000838B504460D46124B984214D03F
:10122000A3F57443984210D003F5806398420CD024
:1012300003F58063984208D003F58063984204D098
:10124000094840F25F2100F0A5F9B5F5007F04D30D
:1012500005484FF4187100F09DF9C5F30805A58005
:1012600038BD00BF00380140BC26000838B505462F
:101270000C46264B984214D0A3F57443984210D0E4
:1012800003F5806398420CD003F58063984208D040
:1012900003F58063984204D01D4840F2863100F087
:1012A00079F9012C18D0802C16D0402C14D0202C89
:1012B00012D0102C10D0B4F5807F0DD0B4F5007F83
:1012C0000AD0082C08D0042C06D0022C04D01048D8
:1012D00040F2873100F05EF9B4F5007F0FD10B4B7F
:1012E0009D420CD0A3F574439D4208D003F5806362
:1012F0009D4204D0064840F28B3100F04BF92B8818
:101300001C4201D0012038BD002038BD003801400A
:10131000BC26000838B504460D461D4B984214D033
:10132000A3F57443984210D003F5806398420CD023
:1013300003F58063984208D003F58063984204D097
:10134000144840F2B63100F025F925F458739BB2E9
:1013500003B925B90F4840F2B73100F01BF905F485
:1013600000739BB27BB10A4B9C420CD0A3F5744333
:101370009C4208D003F580639C4204D0054840F2AB
:10138000BB3100F007F9ED43ADB2258038BD00BF99
:1013900000380140BC26000808B5034800F020F9D9
:1013A000012000F025F800BFF026000808B50D4B1D
:1013B0001B6813B90C4A0B4B1A600A4B1B680330AD
:1013C00020F003001844094A904206D900F0C6FCF8
:1013D0000C2303604FF0FF3008BD024A106018462E
:1013E00008BD00BF9C00002070020020004C0020BF
:1013F00000B508B9044C00E0044C182528462146E5
:10140000ABBE0446FEE700BF260002002300020038
:101410002DE9F04184B0234F019703260396002362
:101420000293012401AD20462946ABBE80461E4BE7
:10143000C3F80080019703960423029320462946AF
:10144000ABBE8046194BC3F8008001970396082372
:10145000029320462946ABBE0446154B1C60B4F1EE
:10146000FF3F03D1114B1A68114B1A60002305E0AE
:101470004FF0FF310F4A42F833100133132BF7DDE1
:101480000C4B094A12681A6000225A600749096821
:101490009960DA600649096819615A6104B0BDE8CB
:1014A000F08100BF04270008F4000020A000002005
:1014B000F8000020240100202DE9F04182B0804690
:1014C0000F46314B00934F2301936D461524204660
:1014D0002946ABBE0446002C42D12B4B83F84F402B
:1014E000009A2046254636E0E5B928490E681E4494
:1014F00096F90160002E03DB092B03D1012102E0E4
:10150000012100E0002129BB082C2ADC222B01D07C
:10151000272B01D1013218461D4B43F824200134FA
:10152000012517E028B1834214D100251570284603
:1015300010E016490968194491F90110002903DBEC
:10154000092B03D1012302E0012300E000230BB1AA
:1015500000251570013292F90030002BC4D100E053
:1015600000242CB9084B00221A70094A1360013478
:10157000074B002243F82420C8F800403B60FFF7E7
:1015800047FF02B0BDE8F081A40000202C0000203D
:10159000FC00002008B503460A460348194600F03F
:1015A00005F8FFF7F9FE00BF502700080FB400B59B
:1015B00083B004AB53F8042B01930848802100F05A
:1015C00065FF011E03DD054800F04AF801460846A4
:1015D00003B05DF804EB04B0704700BFC401002005
:1015E00010B5044600F052FC0146204600F038F8E1
:1015F0000248012100F034F810BD00BF4028000867
:101600002DE9F04385B004468846435C0BBB0425B6
:1016100028462146ABBE04461EE0102F34BF3E468E
:101620001026002306E014F8015B04AA1A4402F80D
:10163000105C0133B342F6D304AA1344002203F82A
:10164000102CE946042528464946ABBE0546BF1B7B
:1016500000E00F46002FE0D1404605B0BDE8F08322
:1016600008B5FFF7CDFF08BD08B500F06DF9024BD6
:10167000024A9A6008BD00BF00ED00E000000008CB
:1016800008B500F089F908BDF8B504460D461746BF
:101690001E462648FFF78AFF25482168FFF786FF88
:1016A00024486168FFF782FF2348A168FFF77EFFA7
:1016B0002248E168FFF77AFF21482169FFF776FFAA
:1016C00020486169FFF772FF1F48A169FFF76EFFAD
:1016D0001E48E169FFF76AFF1D48FFF767FF1D48D5
:1016E0002946FFF763FF1C4CE16A1C48FFF75EFFC9
:1016F000216B1B48FFF75AFFE16B1A48FFF756FFB3
:1017000015F0800F03D018483946FFF74FFF15F446
:10171000004F03D015483146FFF748FF1448FFF744
:1017200045FF14480699FFF741FFF8BDA8270008B8
:10173000B8270008C8270008D8270008E8270008AD
:10174000F82700080828000818280008282800089A
:10175000382800084428000800ED00E0542800085C
:1017600064280008742800088428000894280008C9
:10177000A4280008AC28000838B5044683691B88F3
:101780008B426ED103684568013B302B6BD8DFE894
:1017900003F0421D63635A2C2F2919196A1919196C
:1017A00019193219206A19236A356A6A6A6A6A6ADB
:1017B0006A6A6A6A6A6A6A6A6A6A6A6A6A6A6A6A89
:1017C0006A1919004FF0FF33036045E000230360FE
:1017D00042E0002303603FE000232B606B60AB60BE
:1017E000EB6039E00023036036E0AB68036033E070
:1017F0000023036030E0002303602DE0BFF34F8F30
:101800001A4AD16801F4E061194B0B43D360BFF36E
:101810004F8F00BFFDE72868164900F02DFB70B917
:101820006B6813B90123236016E0042B02D1022355
:10183000236011E0082B02D1032323600CE04FF05A
:10184000FF33236008E02B68023B012B02D8002302
:10185000036001E0AB680360A3690233A361012068
:1018600038BD002038BD002038BD00BF00ED00E0CD
:101870000400FA050427000882B0002301930093B6
:1018800003F1804303F504331A6842F480321A608E
:10189000294B1B6803F400330093019B0133019330
:1018A000009B1BB9019BB3F5A06FF1D1224B1B68C4
:1018B00013F4003F02D00123009301E000230093C2
:1018C000009B012B36D11D4B1A6842F010021A60A2
:1018D0001A6822F003021A601A6842F002021A60C3
:1018E000A3F580535A685A605A685A605A6842F49D
:1018F00080625A605A6822F47C125A605A6842F434
:10190000E8125A601A6842F080721A600A4B1B682B
:1019100013F0007FFAD0084B5A6822F003025A6095
:101920005A6842F002025A60034B5B6803F00C03F2
:10193000082BF9D102B0704700100240002002408D
:1019400008B5FFF799FF08BD08B5104B1A6842F0BB
:1019500001021A6059680E4A0A405A601A6822F059
:10196000847222F480321A601A6822F480221A608B
:101970005A6822F4FE025A604FF41F029A60FFF781
:10198000DFFF4FF00062034B9A6008BD0010024079
:101990000000FFF800ED00E01F4B5B6803F00C0354
:1019A000042B06D0082B08D03BBB1C4A1C4B1A60EA
:1019B00026E01A4A1A4B1A6022E0174B5A685B68F5
:1019C000C2F38342023213F4803F05D1154B03FB6F
:1019D00002F2134B1A6013E00F4B5B6813F4003FE5
:1019E00005D0104B03FB02F20D4B1A6008E00B4BC5
:1019F00003FB02F20A4B1A6002E0084A084B1A6025
:101A0000054B5B68C3F30313074AD15CC9B2044BAF
:101A10001A68CA401A6070470010024000127A002B
:101A20002800002000093D001800002038B50446B9
:101A30000D46112903D918484E21FFF7ABFD20466A
:101A4000294601220523FEF795FE2046FEF7F4FD08
:101A50002046FEF70DFE0028FAD12046FEF726FEAE
:101A60002046FEF73FFE0028FAD120460121FEF76E
:101A700057FE20460221FEF70FFF0028F9D020462E
:101A80000221FEF737FF20460021FEF749FE2046DF
:101A9000FEF7E8FE38BD00BFF0280008124B1A68B8
:101AA000124BA3FB02139B09013BB3F1807F0AD2C7
:101AB0000F4A5360F0210F4B83F8231000239360EB
:101AC0000721116000E0012363B1BFF34F8F094A82
:101AD000D16801F4E061084B0B43D360BFF34F8F33
:101AE00000BFFDE7704700BF28000020D34D621003
:101AF00010E000E000ED00E00400FA05094B1A6870
:101B000001321A60084B1B681BB1074B1A68013A77
:101B10001A60064B1B681BB1044B1A68013A1A6025
:101B2000704700BF48020020440200204C02002001
:101B3000034B1860024B1B68002BFBD1704700BFA2
:101B40004402002030B587B044F204000121FFF7C1
:101B5000BBF94FF40073ADF8143018238DF817302B
:101B600003258DF816501E4C204605A9FFF790F866
:101B70004FF48063ADF8143004238DF817308DF8DE
:101B80001650204605A9FFF783F84FF4E13301937F
:101B90000023ADF80830ADF80A30ADF80C30ADF8E0
:101BA00010300C23ADF80E3004F54054204601A946
:101BB000FFF7B0F920464021FFF7ACFB204640F28A
:101BC00025510122FFF7B0FA204640F22771012289
:101BD000FFF7AAFA20460121FFF772FA07B030BDDD
:101BE0000008014038B504460D460BE059B22046C6
:101BF00089B2FFF70FFB013520464021FFF736FB86
:101C00000028F9D02B78002BF0D138BD70B592B0F8
:101C100001200146FFF732F940F205200121FFF7CC
:101C200053F9C023ADF8043000258DF807502C4837
:101C300001A9FFF72DF82B4E3046FEF77FFE2A4B09
:101C400002932A4B03930495012405940695079566
:101C50004FF4807308934FF48063099320230A9311
:101C60004FF400530B930C95304602A9FEF722FF68
:101C700030462146FEF7C6FF0D958DF838408DF8A9
:101C800039404FF460230F9310958DF84440184D60
:101C900028460DA9FEF7DCFB28460621224607232D
:101CA000FEF768FD28462146FEF7A0FC284621469F
:101CB000FEF772FC2846FEF7BFFC0D48FEF7D8FC85
:101CC0000028FAD10A48FEF7F1FC0948FEF70AFDA0
:101CD0000028FAD106480121FEF722FD12B070BD9E
:101CE00000080140080002404C2401406802002026
:101CF0000024014010B584B0FFF7D0FEFFF722FFAB
:101D0000FFF784FF0F481049FFF76CFF0F480621CB
:101D1000FFF78CFE80B20E4B18801A8801A80D497F
:101D200092B200F085F8074C204601A9FFF75AFF50
:101D300020460949FFF756FF4FF47A70FFF7F8FE87
:101D4000E4E700BF003801400029000800240140FA
:101D50006A020020182900081C290008014B186895
:101D6000704700BF9000002070B5CD1C25F0030522
:101D700008350C2D38BF0C25002D06463FDB8D4263
:101D80003DD3214B1C6818462146A1B10B685B1B53
:101D90000ED40B2B03D90B60CC18CD501FE08C4216
:101DA00002D1626802601AE04B6863600C4616E07C
:101DB0000C464968E9E7154C23681BB9304600F02A
:101DC00027F820602946304600F022F8431C0146DF
:101DD00015D0C41C24F0030484420AD1256004F108
:101DE0000B00231D20F00700C31A0BD05A42E2500B
:101DF00070BD3046611A00F00BF80130EED10C23B3
:101E00003360002070BD00BF54020020500200204B
:101E100038B5064C0023054608462360FFF7C6FA8E
:101E2000431C02D1236803B12B6038BD5802002047
:101E30000EB400B54FF402719CB0ADF814106FF001
:101E40000041049107914FF6FF711DABADF81610DC
:101E5000084953F8042B02900690086802A90193E0
:101E600000F078F8029B00221A701CB05DF804EBB9
:101E700003B070479000002010F8012B11F8013BCF
:101E8000012A28BF9A42F7D0D01A7047034613F8A8
:101E9000012B002AFBD1181A013870472DE9F047B1
:101EA0008D688146AB420C4692461F4643D38B89D0
:101EB00013F4906F3DD0266809690222C1EB060831
:101EC000666906EB460696FBF2F608F101023A4413
:101ED000964238BF16465B050FD53146FFF744FFE3
:101EE000054698B12169424600F0EEFAA38923F431
:101EF000906343F08003A38113E0324600F04CFB73
:101F0000054670B94846216900F002FB0C23C9F868
:101F10000030A3894FF0FF3043F04003A381BDE8B8
:101F2000F087256166614544C8EB06062560A6601A
:101F30003D46AF4200D23D462A462068514600F059
:101F4000CCFAA36800205B1BA36023681D442560B6
:101F5000BDE8F0872DE9F0439DB003938B890746D8
:101F60001C060D4616460CD50B6953B94021FFF7E8
:101F7000FBFE2860286110B90C233B60C7E04023BA
:101F80006B610023099320238DF8293030238DF8CD
:101F90002A3033461C4613F8012B1AB9B4EB060954
:101FA0000FD002E0252AF5D1F8E738462946324617
:101FB0004B46FFF773FF013000F0A480099B4B44B0
:101FC00009932378002B00F09D8000234FF0FF320F
:101FD00004930793059206938DF853301A9304F1F6
:101FE00001094D4E4C4630462178052200F05EFA3C
:101FF00009F10109049B28B1861B0120B04003436D
:102000000493EEE7D90644BF20228DF853201A0727
:1020100044BF2B228DF8532022782A2A02D0079B16
:1020200021460EE0039A111D12680391002A01DB7C
:10203000079204E0524243F00203079204930134F2
:102040000AE00C4622780131303A092A03D80A20E6
:1020500000FB0323F5E7079323782E2B19D1637830
:102060002A2B09D1039B02341A1D1B680392002BF3
:10207000B8BF4FF0FF330BE0611C00230C46227801
:102080000131303A092A03D80A2000FB0323F5E77F
:102090000593224E21783046032200F007FA30B132
:1020A000861B4020B040049B0134034304932178F5
:1020B0001B480622661C8DF8281000F0F7F988B13D
:1020C000184B33B9039B073323F0070308330393FB
:1020D00014E003AB0093384604A92A46124BAFF331
:1020E000008007E003AB0093384604A92A460E4B54
:1020F00000F08EF8B0F1FF3F804603D0099B4344C7
:10210000099346E7AB895B0601D4099801E04FF0DB
:10211000FF301DB0BDE8F083862A00088C2A000835
:10212000902A0008000000009D1E00082DE9F843D9
:1021300015461F468A680B6906469A42A8BF134691
:102140002B6091F843200C46DDF820800AB1013362
:102150002B602368990602D52B6802332B60236815
:1021600013F006091DD094F843302268003318BFDD
:10217000012392061FD5E118302081F843005A1C34
:1021800094F845102244023382F8431013E030469D
:10219000394604F119020123C047013007D009F183
:1021A0000109E2682B68D31A9945F0DBDBE74FF0B1
:1021B000FF30BDE8F8833046394604F14302C0479A
:1021C0000130F4D023682A6803F00603E168042B89
:1021D00008BFC2EB01052369A2680CBF25EAE575BB
:1021E00000259A42C4BFC3EB0203ED184FF000096B
:1021F000A9450ADA3046394604F11A020123C047DC
:102200000130D4D009F10109F2E70020BDE8F883DC
:102210002DE9FF470E7E80466E2E0C4691469A466B
:102220000C9D01F1430000F0A58011D8632E22D04F
:1022300009D8002E00F0AF80582E40F0BF8081F802
:1022400045607B4A4FE0642E1ED0692E1CD0B5E05D
:10225000732E00F0A48009D86F2E2BD0702E40F082
:10226000AD800B6843F020030B6038E0752E21D061
:10227000782E34D0A2E02B6801F142071A1D1B68AA
:102280002A6081F842309DE022682B6812F0800FAE
:1022900003D01A1D2A601D6805E05106F9D51A1DE4
:1022A0002A60B3F90050002D39DA2D236D4284F8ED
:1022B000433034E022682B6812F0800F03D01A1DDF
:1022C0002A601D6804E05206F9D51A1D2A601D888F
:1022D000237E574A6F2B14BF0A2308231BE0782361
:1022E000544A84F845302368296813F0800F01F1BF
:1022F00004062E6001D00D6802E05F06FBD50D8854
:10230000DE0744BF43F0200323601DB9236823F098
:10231000200323601023002184F8431001E0444A85
:102320000A236668002EA66003DB216821F0040101
:10233000216005B96EB104F14201B5FBF3F603FB70
:102340001655555D0F4601F801593546002EF4D15A
:1023500000E00746082B0AD12368DD0707D562682D
:1023600023699A4203DC302307F8013C013FC01B7C
:1023700020612CE009682B6811F0800F626904D09D
:10238000191D29601B681A6005E04906F8D5191D5A
:1023900029601B681A8000232361074617E02B6819
:1023A0001A1D2A601F683846FFF770FD63682061B8
:1023B000984288BF23612369636005E004F1420706
:1023C00084F8426001232361002384F84330CDF870
:1023D00000A04046214603AA4B46FFF7A7FE013066
:1023E00002D14FF0FF301FE0404649463A4623698C
:1023F000D0470130F5D023689B0705D4E068039BE4
:102400009842B8BF18460FE00025E268039BD31A34
:102410009D42F3DA4046494604F119020123D047B0
:102420000130DED00135F0E704B0BDE8F08700BF31
:10243000972A0008A82A000830B5141E9BB005464C
:1024400004DA8B2303604FF0FF301CE04FF402727C
:1024500000910491ADF80C2014BF04F1FF31214626
:102460004FF6FF7202910591ADF80E2069461A46AB
:102470001E9BFFF76FFD431CBCBF8B232B6014B169
:10248000009B00221A701BB030BD000073B5009392
:10249000054B06460D461446186831462A46234623
:1024A000FFF7CAFF02B070BD9000002010B5C9B29E
:1024B00002449042034605D01C7801308C42F8D18A
:1024C000184610BD002010BD10B50023934203D064
:1024D000CC5CC4540133F9E710BD814270B501D31F
:1024E00000230EE08C18A042FAD28518134613F18F
:1024F000FF3305D351426618F65C2944CE54F6E703
:1025000070BD934203D0CC5CC4540133F9E770BD75
:1025100030B500293CD051F8042C0B1F1D49002A6E
:10252000B8BF9B180A680C4612B95A600B6030BDE0
:1025300093420DD219685818904203D15A58114449
:10254000426819605A60236030BD994203D80A4638
:1025500051680029F9D1146815199D420AD11B68E8
:102560002344D0188842136012D1086803441360D2
:102570004B680CE002D90C23036030BD18681C18AE
:102580008C4203D10C68496820441860596053603C
:1025900030BD00BF54020020F8B5064614460D4673
:1025A00021B91146BDE8F840FFF7DEBB1AB9FFF7C5
:1025B000AFFF2046F8BD00F015F8A0420ED230461D
:1025C0002146FFF7D1FB074650B129462246FFF7C7
:1025D0007BFF30462946FFF79BFF01E02846F8BD08
:1025E0003846F8BD51F8040C002802DA04390B58BB
:1025F00018440438704700002E2E2F7379737465C9
:102600006D2F7372632F73746D333266312D737453
:10261000647065726970682F73746D33326631301F
:10262000785F6164632E63002E2E2F737973746557
:102630006D2F7372632F73746D333266312D737423
:10264000647065726970682F73746D3332663130EF
:10265000785F646D612E63002E2E2F73797374651D
:102660006D2F7372632F73746D333266312D7374F3
:10267000647065726970682F73746D3332663130BF
:10268000785F6770696F2E63000000002E2E2F7335
:10269000797374656D2F7372632F73746D33326643
:1026A000312D7374647065726970682F73746D3343
:1026B00032663130785F7263632E63002E2E2F7383
:1026C000797374656D2F7372632F73746D33326613
:1026D000312D7374647065726970682F73746D3313
:1026E00032663130785F75736172742E630000005A
:1026F00061626F727428292C2065786974696E672D
:102700002E2E2E003A7474002F746D70000000009D
:102710002C2066756E6374696F6E3A2000000000AD
:10272000617373657274696F6E202225732220664F
:1027300061696C65643A2066696C652022257322A4
:102740002C206C696E65202564257325730A0000B2
:102750006173736572745F706172616D28292066A0
:1027600061696C65643A2066696C65202225732274
:102770002C206C696E652025640A00006D61696E0D
:1027800028617267633D25642C20617267763D5B2A
:10279000000000002C200000222573220000000011
:1027A0005D293B0A00000000537461636B20667270
:1027B000616D653A0A000000205230203D2020253E
:1027C0003038580A00000000205231203D202025DA
:1027D0003038580A00000000205232203D202025C9
:1027E0003038580A00000000205233203D202025B8
:1027F0003038580A0000000020523132203D202598
:102800003038580A00000000204C52203D2020257E
:102810003038580A00000000205043203D20202579
:102820003038580A0000000020505352203D202527
:102830003038580A000000004653522F4641523AA1
:102840000A0000002043465352203D202025303806
:10285000580A00002048465352203D202025303899
:10286000580A00002044465352203D20202530388D
:10287000580A00002041465352203D202025303880
:10288000580A0000204D4D464152203D2025303849
:10289000580A00002042464152203D202025303871
:1028A000580A00004D6973630A000000204C522F43
:1028B0004558435F52455455524E3D2025303858B7
:1028C0000A0000005B486172644661756C745D0AC1
:1028D000000000005B4275734661756C745D0A0010
:1028E0005B55736167654661756C745D0A00000035
:1028F0002E2E2F7372632F4144432E63000000007D
:10290000204368756F6E67207472696E6820746505
:102910007374204144430000256400000A0D000048
:10292000002020202020202020202828282828209F
:102930002020202020202020202020202020202097
:1029400020881010101010101010101010101010FF
:1029500010040404040404040404041010101010EF
:1029600010104141414141410101010101010101B9
:10297000010101010101010101010101101010100B
:10298000101042424242424202020202020202028B
:1029900002020202020202020202020210101010DF
:1029A0002000000000000000000000000000000007
:1029B0000000000000000000000000000000000017
:1029C0000000000000000000000000000000000007
:1029D00000000000000000000000000000000000F7
:1029E00000000000000000000000000000000000E7
:1029F00000000000000000000000000000000000D7
:102A000000000000000000000000000000000000C6
:102A100000000000000000000000000000000000B6
:102A200000000000000000000000000000000000A6
:102A30000000000000000000000000000000000096
:102A40000000000000000000000000000000000086
:102A50000000000000000000000000000000000076
:102A60000000000000000000000000000000000066
:102A70000000000000000000000000000000000056
:102A8000000000004300232D302B2000686C4C0018
:102A9000656667454647003031323334353637385E
:102AA00039414243444546003031323334353637BC
:092AB00038396162636465660057
:102ABC0078563412020406080000000001020304D8
:102ACC0001020304060708090000000000000000D2
:102ADC00010203040607080900A24A042029000881
:102AEC0000000000242A0008442A0008642A000878
:102AFC0000000000000000000000000000000000CA
:102B0C00842A000800000000000000000000000003
:102B1C0000000000000000000000000000000000A9
:102B2C000000000000000000000000000000000099
:102B3C000000000000000000000000000000000089
:082B4C0030000020325476989D
:04000005080001E509
:00000001FF
